S00E00004F7070675F312E73726563F0
S11300000C9434000C943E000C943E000C943E007E
S11300100C943E000C943E000C943E000C943E0064
S11300200C943E000C943E000C943E000C943E0054
S11300300C943E000C943E000C943E000C943E0044
S11300400C943E000C943E000C943E000C943E0034
S11300500C943E000C943E000C943E000C943E0024
S11300600C943E000C943E0011241FBECFEFD8E048
S1130070DEBFCDBF0E9440000C947B000C940000B6
S1130080E0E8F0E08081826A8083E1E8F0E080814A
S11300908B61808387E893E1909387008093860047
S11300A0219AE8E8F0E041E650E026E331E082E11D
S11300B092E0518340836FEF73EDA0E36150704091
S11300C0A040E1F700C00000318320836FEF73ED9F
S11300D0A0E361507040A040E1F700C000009183AC
S11300E080836FEF73EDA0E361507040A040E1F7AF
S10D00F000C00000DECFF894FFCF3B
S9030000FC
