S0150000756172745F4D616B655F4156522E737265632E
S11300000C9434000C9449000C9449000C9449005D
S11300100C9449000C9449000C9449000C94490038
S11300200C9449000C9449000C9449000C94490028
S11300300C9449000C9449000C9449000C94490018
S11300400C9449000C9449000C9449000C94490008
S11300500C9449000C9449000C9449000C944900F8
S11300600C9449000C94490011241FBECFEFD8E032
S1130070DEBFCDBF11E0A0E0B1E0ECE3F1E002C0EF
S113008005900D92A031B107D9F70E944B000C9452
S11300909C000C9400008CEF8AB983E084B90E9420
S11300A0640080E091E00E9486000E947E00C82FD8
S11300B00E9476008C2F829586958695837085B9EB
S11300C0CC0FCC0FCBB9F1CF87E690E09093C5006D
S11300D08093C400E0ECF0E080818D7F808388E130
S11300E08093C10086E08093C2000895E0ECF0E0C4
S11300F0908195FFFDCF8093C6000895E0ECF0E079
S113010080818823ECF78091C60008950F931F9394
S1130110CF93FC018081882359F08F01C0E00E94B5
S11301207600CF5FF801EC0FF11D80818111F7CFCC
S10F0130CF911F910F910895F894FFCF18
S113013C48656C6C6F20576F726C64210D0A00005B
S9030000FC
