S01700006D616B655F6176725F65785F365F332E7372656364
S11300000C9434000C943E000C943E000C943E007E
S11300100C943E000C943E000C943E000C943E0064
S11300200C943E000C943E000C943E000C943E0054
S11300300C943E000C943E000C943E000C943E0044
S11300400C943E000C943E000C943E000C943E0034
S11300500C943E000C943E000C943E000C943E0024
S11300600C943E000C943E0011241FBECFEFD8E048
S1130070DEBFCDBF0E944E000C9463000C940000C0
S113008018990AC08FE99FE00197F1F700C00000BA
S113009083B180958170089580E00895289A80E264
S11300A084B9C0E000E211E0D0E001C0CD2F0E948D
S11300B040008823D9F3C111FACF85B1802785B9CF
S10D00C01D9AC12FF4CFF894FFCF6E
S9030000FC
