S01700006D616B655F6176725F65785F365F322E7372656365
S11300000C9434000C943E000C943E000C943E007E
S11300100C943E000C943E000C943E000C943E0064
S11300200C943E000C943E000C943E000C943E0054
S11300300C943E000C943E000C943E000C943E0044
S11300400C943E000C943E000C943E000C943E0034
S11300500C943E000C943E000C943E000C943E0024
S11300600C943E000C943E0011241FBECFEFD8E048
S1130070DEBFCDBF0E9440000C9454000C940000DD
S113008085B1807F85B92C9A80E284B931E090E013
S113009020E2832F01C0892F1C99FDCF8111FCCF51
S10F00A085B1822785B9F5CFF894FFCF15
S9030000FC
