S00D00004C61625F312E7372656378
S11300000C9434000C943E000C943E000C943E007E
S11300100C943E000C943E000C943E000C943E0064
S11300200C943E000C943E000C943E000C943E0054
S11300300C943E000C943E000C943E000C943E0044
S11300400C943E000C943E000C943E000C943E0034
S11300500C943E000C943E000C943E000C943E0024
S11300600C943E000C943E0011241FBECFEFD8E048
S1130070DEBFCDBF0E9440000C9458000C940000D9
S113008080E284B985B985B92FEF37E893E121502F
S113009030409040E1F700C0000015B82FEF3BE47A
S11300A09DE1215030409040E1F700C00000EBCFCB
S10700B0F894FFCFEE
S9030000FC
