S01700006D616B655F6176725F65785F365F312E7372656366
S11300000C9434000C943E000C943E000C943E007E
S11300100C943E000C943E000C943E000C943E0064
S11300200C943E000C943E000C943E000C943E0054
S11300300C943E000C943E000C943E000C943E0044
S11300400C943E000C943E000C943E000C943E0034
S11300500C943E000C943E000C943E000C943E0024
S11300600C943E000C943E0011241FBECFEFD8E048
S1130070DEBFCDBF0E9440000C944B000C940000E6
S11300805A9A8FEF84B997E088E34A9902C085B9F8
S10D0090FCCF95B9FACFF894FFCF26
S9030000FC
