S0120000636F6D70617261746F722E73726563DA
S11300000C9434000C943E000C943E000C943E007E
S11300100C943E000C943E000C943E000C943E0064
S11300200C943E000C943E000C943E000C943E0054
S11300300C943E000C943E000C943E000C943E0044
S11300400C943E000C943E000C943E000C943E0034
S11300500C943E000C943E000C943E000C943E0024
S11300600C943E000C943E0011241FBECFEFD8E048
S1130070DEBFCDBF0E9440000C944B000C940000E6
S113008080E284B980E480BF00B605FE02C02D98EA
S10D0090FBCF2D9AF9CFF894FFCFAF
S9030000FC
