:100000000C9434000C9449000C9449000C94490061
:100010000C9449000C9449000C9449000C9449003C
:100020000C9449000C9449000C9449000C9449002C
:100030000C9449000C9449000C9449000C9449001C
:100040000C9449000C9449000C9449000C9449000C
:100050000C9449000C9449000C9449000C944900FC
:100060000C9449000C94490011241FBECFEFD8E036
:10007000DEBFCDBF11E0A0E0B1E0EEE0F3E002C0F2
:1000800005900D92A834B107D9F70E944B000C944B
:1000900085010C940000CF93DF93CDB7DEB7C75432
:1000A000D1090FB6F894DEBF0FBECDBF8BE1E0E003
:1000B000F1E0DE01119601900D928A95E1F78BE057
:1000C000EBE1F1E0DE015C9601900D928A95E1F79B
:1000D0008AE0E6E2F1E0DE01979601900D928A95C2
:1000E000E1F78CE0E0E3F1E0DE01D19601900D92C2
:1000F0008A95E1F78BE0ECE3F1E0DE01DD9601901B
:100100000D928A95E1F787E690E00E94360180E241
:1001100084B981E085B90E94ED008E01095D1F4F11
:10012000CE0101960E943E011899FECF8FE39CE913
:100130000197F1F700C00000189BFECFCE014C964E
:100140000E943E010E94F4008823C9F10E940A0126
:10015000AC01892B79F1FE01BB969A01ADECBCECA8
:100160000E947601969587959695879596958795A1
:100170009C01220F331F880F991F880F991F880F2A
:10018000991F820F931F9A01281B390BC901805DAB
:1001900082939A010E947601AC0156954795569537
:1001A0004795569547950E171F07B9F6C8010E9447
:1001B0003E0109C0CE01C1960E943E0104C0CE019D
:1001C000CD960E943E013FEF83ED90E33150804099
:1001D0009040E1F700C00000A3CF85E88093810044
:1001E00081E080936B00089581E08BBB8091840057
:1001F0008F7390E040962FEF3FE143E02150304075
:100200004040E1F700C000000197A9F78BB380954B
:100210008170089586B3816286BB1092850010922A
:1002200084002D9A86B38172E9F32D98B09919C094
:100230006091860070918700CB01A0E0B0E0BC0126
:10024000CD01052E5AE0660F771F881F991F5A951A
:10025000D1F7502D20E83EE340E050E00E945401E9
:1002600003C020E030E0A901C90108959093C500C2
:100270008093C40088E08093C1000895CF93DF93FA
:10028000FC012081222369F0DC011196E0ECF0E012
:10029000C6ECD0E0908195FFFDCF28832D912111F0
:1002A000F9CFDF91CF910895A1E21A2EAA1BBB1BB3
:1002B000FD010DC0AA1FBB1FEE1FFF1FA217B30732
:1002C000E407F50720F0A21BB30BE40BF50B661F48
:1002D000771F881F991F1A9469F76095709580950C
:1002E00090959B01AC01BD01CF010895A29FB00183
:1002F000B39FC001A39F700D811D1124911DB29F5A
:0E030000700D811D1124911D0895F894FFCFFA
:10030E000D0A507265737320627574746F6E20746B
:10031E006F2073746172742E2E2E0053746172747A
:10032E006564210D0A00313233346D73200D0A00DD
:10033E00546F6F20736C6F77210D0A0043686561EF
:08034E00746572210D0A000024
:00000001FF
