:100000000C9434000C9446000C9446000C9446006A
:100010000C9446000C9446000C9446000C94460048
:100020000C9446000C9446000C9446000C949500E9
:100030000C9446000C946A000C9446000C94460004
:100040000C9446000C9446000C9446000C94460018
:100050000C9446000C9446000C9446000C94460008
:100060000C9446000C94460011241FBECFEFD8E03C
:10007000DEBFCDBF21E0A0E0B1E001C01D92A13004
:10008000B207E1F70E9448000C94A0000C94000015
:1000900082E284B980E4809380008DE080938100C7
:1000A00082E19AE7909389008093880082E08093B0
:1000B0006F0078941899FECFF894229A81EF80937C
:1000C00080008AE08093810083E080936F00B09A83
:1000D0007894FFCF1F920F920FB60F9211248F9337
:1000E0009F93EF93FF93809100018F5F803418F40A
:1000F0008093000110C010920001E8E8F0E08081D8
:100100009181019691838083EAE8F0E0808191817A
:100110000197918380831D9AFF91EF919F918F9119
:100120000F900FBE0F901F9018951F920F920FB651
:100130000F9211241D9A0F900FBE0F901F901895CB
:04014000F894FFCF61
:00000001FF
