S00E00004C61625F31302E7372656347
S11300000C9434000C9449000C9449000C9449005D
S11300100C9449000C9449000C9449000C94490038
S11300200C9449000C9449000C9449000C94490028
S11300300C9449000C9449000C9449000C94490018
S11300400C9449000C9449000C9449000C94490008
S11300500C9449000C9449000C9449000C944900F8
S11300600C9449000C94490011241FBECFEFD8E032
S1130070DEBFCDBF12E0A0E0B1E0E4E3F3E002C0F4
S113008005900D92A635B107D9F70E944B000C9448
S113009098010C9400000E946101E1E8F0E0808185
S11300A085608083808180648083B59AEFE6F0E088
S11300B08081806280838FEF84B95A9A85E090E0D2
S11300C00E94820180E091E00E94820184E191E03B
S11300D00E94820186E291E00E9482018091860062
S11300E0909187000E94820106E810E0DD24DA94F2
S11300F00F2EF4E8EF2EF12CF02D0E947A0180E40B
S113010091E00E9482010E944901F801808191815D
S11301100E9482018FE491E00E948201F8018081B3
S113012091810E948201D5B8F701118210824A9907
S11301300AC087E591E00E948201F80180819181E3
S11301400E94820111C04A99FECFF701C081D1817A
S1130150D295C295CF70CD27DF70CD27CE010E94F6
S1130160BA00CE010E94110115B888E791E00E94FF
S11301708201C3CFCF93DF93EC0186E991E00E9423
S11301808201C03127E2D20780F080E001C0892FCC
S113019091E0980FC051D742C03127E2D207B8F797
S11301A0992319F08F5C0E947201C83E83E0D8073E
S11301B048F080E08F5FC85ED340C83E93E0D90723
S11301C0C8F701C080E0805D0E9472018EE20E9447
S11301D07201C436D10540F080E08F5FC456D10966
S11301E0C436D105D0F701C080E0805D0E94720161
S11301F0CA30D10538F080E08F5F2A97CA30D10524
S1130200D8F701C080E0805D0E9472018C2F805D70
S11302100E94720182EA91E00E948201DF91CF91F3
S11302200895813D27E0920728F08EEA91E00E942C
S113023082010895893E23E0920728F08AED91E037
S11302400E9482010895853F21E0920728F08AEEFA
S113025091E00E94820108958B3F910528F089EF77
S113026091E00E9482010895893C910528F08EE175
S113027092E00E94820108958639910528F084E372
S113028092E00E948201089583E492E00E94820138
S113029008952FEF83ED90E3215080409040E1F7E3
S11302A000C000008091840090918500815041F04D
S11302B0EFE3FCE93197F1F700C000008150C1F78A
S11302C008951092C50087E68093C400E0ECF0E046
S11302D080818D7F808388E18093C10086E0809354
S11302E0C2000895E0ECF0E0908195FFFDCF80938B
S11302F0C6000895E0ECF0E080818823ECF780915B
S1130300C60008950F931F93CF93FC018081882327
S113031059F08F01C0E00E947201CF5FF801EC0F29
S1130320F11D80818111F7CFCF911F910F91089515
S1070330F894FFCF6B
S11303340D0A5265616374696F6E2054696D657248
S11303443A0D0A002D2D2D2D2D2D2D2D2D2D2D2D38
S11303542D2D2D0D0A00507265737320616E792062
S11303646B657920746F2073746172742E0D0A00A6
S11303740D0A4765742072656164792E2E2E000D72
S11303840A476F210D0A00596F75277265206F6E35
S11303946C79206368656174696E6720796F75721E
S11303A473656C662E0D0A00507265737320616E5A
S11303B479206B657920746F207472792061676188
S11303C4696E2E0D0A000D0A596F7520746F6F6BD8
S11303D42000207365636F6E64732E0D0A002D2D47
S11303E42D2D3E2020556D6D6D2E2E2E746869734F
S11303F42069732061207265616374696F6E20746F
S1130404696D65722E2E2E0D0A002D2D2D2D3E2084
S11304142048656C6C6F3F0D0A002D2D2D2D3E2058
S113042420536C6F772E0D0A002D2D2D2D3E202088
S11304344861766520616E6F7468657220637570B7
S1130444206F6620636F666665652E0D0A002D2D88
S11304542D2D3E20205265737065637461626C6552
S11304642E0D0A002D2D2D2D3E2020466173742E51
S11304740D0A002D2D2D2D3E2020416D617A696ECB
S109048467210D0A0000CF
S9030000FC
