S00B0000745F312E7372656315
S11300000C9434000C943E000C943E000C943E007E
S11300100C943E000C943E000C943E000C943E0064
S11300200C943E000C943E000C943E000C943E0054
S11300300C943E000C943E000C943E000C943E0044
S11300400C943E000C943E000C943E000C943E0034
S11300500C943E000C943E000C943E000C943E0024
S11300600C943E000C943E0011241FBECFEFD8E048
S1130070DEBFCDBF0E9440000C944D000C940000E4
S113008080E284B991E095B92D9A95B1892785B913
S11100901D9A1899FECF1C9AFCCFF894FFCF4E
S9030000FC
