S00D00004C61625F342E7372656375
S11300000C9434000C943E000C943E000C943E007E
S11300100C943E000C943E000C943E000C943E0064
S11300200C943E000C943E000C943E000C943E0054
S11300300C943E000C943E000C943E000C943E0044
S11300400C943E000C943E000C943E000C943E0034
S11300500C943E000C943E000C943E000C943E0024
S11300600C943E000C943E0011241FBECFEFD8E048
S1130070DEBFCDBF0E9451000C9464000C940000BC
S11300804A990DC089EF90E00197F1F700C0000094
S113009089B182FB992790F981E08927089580E04E
S11300A008955A9A81E084B9C0E011E0D0E001C01B
S11300B0CD2F0E9440008823D9F3C111FACF85B116
S10F00C0812785B9C12FF5CFF894FFCF3C
S9030000FC
