:100000000C9434000C94AF000C9446000C94460001
:100010000C9446000C9446000C9446000C94460048
:100020000C9446000C9446000C9446000C94460038
:100030000C9446000C9446000C9446000C94460028
:100040000C9446000C9446000C9446000C94460018
:100050000C9446000C9475000C9446000C944600D9
:100060000C9446000C94460011241FBECFEFD8E03C
:10007000DEBFCDBF21E0A0E0B1E001C01D92A23003
:10008000B207E1F70E946A000C94BB000C940000D8
:1000900084B1866084B982EA809380008AE180938B
:1000A000810080E197E29093870080938600089515
:1000B00085E480937C00EEE7F0E0808180618083BE
:1000C000EAE7F0E08FEA808310927B008081806411
:1000D00080830895259A80E18BB90E9448000E9490
:1000E0005800789480E090E008951F920F920FB628
:1000F0000F9211242F933F934F935F938F939F936E
:10010000AF93BF938091790090E090930101809329
:1001100000019C01220F331F220F331F820F931FF8
:10012000A0E0B0E00196A11DB11D42EE54E0849F15
:100130009001859F300D949F300D112430938900DC
:1001400020938800BF91AF919F918F915F914F91C4
:100150003F912F910F900FBE0F901F9018951F92F7
:100160000F920FB60F921124259A1D9A0F900FBE71
:0A0170000F901F901895F894FFCF30
:00000001FF
